:020000040000FA
:10000000E8570020B92100004F5200008D21000068
:100010008D2100008D2100008D2100008D21000028
:100020000000000000000000000000002D1D000086
:100030008D210000000000008D2100008D210000B6
:10004000891D0000891D0000891D0000891D000018
:10005000891D0000891D0000891D0000891D000008
:10006000891D0000891D0000891D0000891D0000F8
:10007000891D0000891D0000891D0000891D0000E8
:10008000891D0000891D0000891D0000891D0000D8
:10009000891D0000891D0000891D0000891D0000C8
:1000A000891D0000891D0000891D0000891D0000B8
:1000B000891D0000891D0000891D0000891D0000A8
:1000C000891D0000891D0000891D0000891D000098
:1000D000891D0000891D0000891D0000891D000088
:1000E000891D0000891D0000891D0000891D000078
:1000F000891D0000891D0000891D0000891D000068
:10010000891D0000891D0000891D0000891D000057
:10011000891D0000891D0000891D0000891D000047
:10012000891D0000891D0000891D0000891D000037
:10013000891D0000891D0000891D0000891D000027
:10014000891D000053B94AB9002908BF00281CBF07
:100150004FF0FF314FF0FF3000F00CB8ADF1080C5C
:100160006DE904CE00F008F8DDF804E0DDE90223D3
:1001700004B07047704700BF2DE9F04786468C46B3
:100180000846089E154674461946002B40F0C1806B
:100190008542B2FA82F245D94AB1C2F1200300FA8F
:1001A00002FC954094402EFA03F343EA0C0C4FEA0C
:1001B000154EA8B2230CBCFBFEF80EFB18CC08FBB6
:1001C00000F943EA0C43994528D9EB1808F1FF37A9
:1001D00004D2994502D9A8F102072B44A3EB0903E5
:1001E000A4B2B3FBFEFC0EFB1C330CFB00F044EA94
:1001F0000344A04214D92C190CF1FF3304D2A042BD
:1002000002D9ACF102032C44241A43EA07401EB180
:10021000D440002334607360BDE8F0874746DDE7D3
:100220006346F1E792BB431B01214FEA154EAFB283
:10023000200CB3FBFEFC0EFB1C330CFB07F840EA62
:100240000343984561D9EB180CF1FF3004D298456F
:1002500002D9ACF102002B44A3EB0803A4B2B3FB18
:10026000FEFC0EFB1C330CFB07F744EA0344A742D9
:100270004DD92C190CF1FF3304D2A74202D9ACF1AD
:1002800002032C44E41B43EA0040C0E7C2F1200310
:100290009540944020FA03F12EFA03F34FEA154EED
:1002A0009040AFB20343B1FBFEFC0EFB1C10190CD7
:1002B0000CFB07F841EA0041884522D969180CF186
:1002C000FF3004D2884502D9ACF102002944A1EBE9
:1002D00008019BB2B1FBFEFC0EFB1C110CFB07F7E7
:1002E00043EA01439F420ED9EB180CF1FF3104D2CF
:1002F0009F4202D9ACF102012B44DB1B41EA0041D1
:1003000093E76046E3E76146F7E76046A4E76346A4
:10031000B8E7834206D916B9002108467CE7C6E94A
:1003200000E0F9E7B3FA83F78FB9834201D372454E
:1003300008D8BEEB020460EB030301209C461EB903
:10034000002169E73846FAE7C6E9004CF8E7C7F14B
:10035000200CBB400EFA07F522FA0CF42EFA0CF131
:10036000BA401C4320FA0CF3B8404FEA1449014349
:100370001FFA84FEB3FBF9F809FB18300B0C08FBDD
:100380000EFA43EA00439A4540D9E31808F1FF30DA
:1003900004D29A4502D9A8F102002344A3EB0A0330
:1003A00089B2B3FBF9F809FB183308FB0EFE41EAEA
:1003B00003418E452CD9611808F1FF3304D28E45D4
:1003C00002D9A8F10203214443EA0040A1EB0E0147
:1003D000A0FB02984145CE46434602D306D14D4587
:1003E00004D20138B9EB020E68EB0403002EA7D04B
:1003F000B5EB0E0261EB030101FA0CFC22FA07F3E4
:10040000F9404CEA0303C6E9003199E74046C5E7E5
:100410004346D9E7F0B52F4B2F4A4921C3F80026B0
:100420002E48C3F8042685B0C3F80826C3F80C2666
:10043000C3F81026C3F81426C3F81826C3F81C26E0
:1004400004F07CFE00F078F801A800F0D9FC244B01
:100450001B68834204D04521224804F06FFEFEE76A
:10046000039A4921204804F069FE49211F4804F0FD
:1004700065FE4FF48031002002F078FE044620B182
:1004800045211B4804F05AFEFEE769469DF8080026
:1004900000F032F8009B039D1D44019B1E8900F073
:1004A0007FFFAF1900F060FF01F0C8FE84F30B88F6
:1004B00084F30A88AB5983F3088884F31488BFF364
:1004C0006F8FBFF36F8F7B6898474521094804F011
:1004D00035FEFEE7008001503546526EE0770000A1
:1004E000B8010020F97700001C7800004B7800006C
:1004F00070780000A3780000024608B538B10548BE
:100500000023452104F01AFE6FF0150008BD0860B5
:10051000FCE700BFC67800001FB50C46014601AAE3
:10052000044804F0E7FF18B9019B2360029B636055
:1005300004B010BDB07100004FF4C051014803F089
:1005400083B800BFE00E00202DE9F04FDFF8E4A1F2
:10055000F9B038A8DDE9844817461D46DAF800608E
:1005600006F036FC002138A803F082F93CB1B8F15E
:10057000000F04DD4246214638A806F02DFC4FF05E
:1005800000097B89B7F808809844FB689844C845FF
:1005900021D80DA938A806F058FC869B23B120224B
:1005A00018460DA904F071FE00232A46009339462F
:1005B0004FF6FF7307A804F071FA044638B92846CD
:1005C0000C9F00F0DDF987421BD94FF0FF34204625
:1005D00079B0BDE8F08F839BA8EB090B9B4528BF42
:1005E0009B4649465B462846829A04F0B5FD044680
:1005F0000028ECD15A46829938A806F0EDFBD94480
:10060000C5E74FF0FF37DFF830910DF1160305AA6B
:1006100006A907A804F090FAB0F10008C0F288809B
:100620007BD1BDF816B0BBF1100F18D1BDF8144046
:10063000202CCAD123462846069938AA04F08CFDFE
:100640008046002874D1224638A90DA804F0C0FACB
:1006500004463A4B1B688342B9D10124D5E7BBF16C
:10066000010F37D1BDF81430202BAED8284606999B
:1006700038AA04F071FD8046002859D19DF814B0C5
:10068000BBF1200F03D94FF0FF384746BDE7D9F83B
:1006900000302B4F0393039B9845F4DA1DA806F016
:1006A00097FB00211DA803F0E3F87A681DA81268E3
:1006B00057F8081B06F090FB15A91DA806F0C5FB0E
:1006C0005A4638A915A804F0D0FD0028DDD008F15D
:1006D0000108E0E7BBF1200F97D17B1C95D0D9F83A
:1006E0000030BB4216DDBDF81430B3F5807F7FF4D7
:1006F0006CAF2846069938AA04F02EFD8046B8B99A
:10070000FFB25946BDF81430009738AA0DA800F082
:1007100019F806464FF0FF3777E73CB1074B1B68E7
:10072000B34218BFDAF80060344650E74FF00108D2
:1007300044464CE70000002058740000B801002037
:100740005C7400002DE9F04F1F46ADF54B7D6A4B00
:10075000804627A89DF850638A4691461D6806F09A
:10076000F4FA664B8AAA53F8364003EBC6035B687B
:1007700002941B6802A81C442146302305F079F836
:1007800068BB029B8A9A13449C4228D1214629AA1D
:1007900002A805F082F810BB0DF1B00B5A462146B5
:1007A00002A805F07AF80646C8B929A805F095FB15
:1007B000029B28909C4212D133463246CDE9006B11
:1007C00029A927A806F07EFA48B927A802F0E2FF77
:1007D00028B929A805F081FB874228900AD027A8CC
:1007E00006F0BDFA27A806F0BAFA28460DF54B7DAB
:1007F000BDE8F08FB7F5807F02D04FF0FF35F1E70D
:10080000BAF1200FF9D149468AAA27A802F0E8FFD9
:1008100004460028F1D19DF82733BC2BEDD152AF0F
:10082000DF263D4603900CA806F0D2FA00210CA862
:1008300003F01EF820220DF207310CA806F0CCFAC6
:10084000042203A90CA806F0C7FA04A90CA806F014
:10085000FCFA202EB146A8BF4FF020099DF80F30BA
:10086000384601334A4604A9A6EB09068DF80F3035
:1008700004F00BFD002E4F44D5DC2F462946002204
:100880008AAB087813F8016B01327040DF2A01F857
:10089000010BF6D12B7803F07F032B7017F8016B57
:1008A000002EAAD10134BE2CF8D195F8BE30012B10
:1008B000A3D10CA806F08CFA31460CA802F0D8FFA0
:1008C00008220F490CA806F087FA414620220CA8FE
:1008D00006F082FA20220DF207210CA806F07CFA1D
:1008E00004A90CA806F0B1FA20220DF2073104A8E1
:1008F00004F06EF9054682E7000000205C740000F9
:10090000EC7800002DE9F041032386B00D466F46D8
:100910000026DFF86880ADF8003017F8010B01A958
:1009200001F006F90446A0B901981023816802AAD3
:10093000103904F011FC0446019804F00CFC44B991
:100940001022414602A804F090FC40B12EB14FF0B5
:10095000FF34204606B0BDE8F0810126DDE70198AE
:1009600004F08EFE0423A0F108012A46019804F049
:10097000F3FB0446019804F0EEFBEAE7D0770000B1
:1009800007B504F039F96946FFF7C6FD38B10548E7
:10099000452104F0D3FB002003B05DF804FB009870
:1009A000FAE700BFF47800002DE9F041354B88B03C
:1009B000064600200C461D6804F065F806A9C0B282
:1009C00001F0B6F8002857D1214604F05CF82C2538
:1009D00007A9C0B205FB046501F0AAF8002833D0CE
:1009E0002C27674306EB0708D8F81010069B11F078
:1009F000100138D14FF480720192234A08460092C8
:100A0000CDE903112A460291FFF79EFD05461F4BD3
:100A1000F25906989A420CD1D8F80C20B8F8083050
:100A20009B1806D28268934203D2194B1B68AB42D3
:100A30001FD02CB38268002104F0B8FB154A452171
:100A4000154804F07BFB13E0079804F0CAFB074647
:100A5000079804F080FB6B1EEA1C13F8011FB942D3
:100A6000BED19342F9D11CB13046069904F0A8F9E1
:100A70000125069804F06FFB284608B0BDE8F08118
:100A8000064ADCE700000020E02600203DB8F3968F
:100A9000B801002037790000417900002F7900006B
:100AA00073B50D46002104462846CDE9001104F037
:100AB00046F930B3164E2368B34203D1204601AA4B
:100AC00004F0D2F8E36AB34204D16A460121204619
:100AD00004F0CAF8DDE90032934288BF0193019B1C
:100AE000AB60019A2946204600F034FB094B1A6896
:100AF000002A03DD5721084804F020FB002002B043
:100B000070BD05F10801FFF7FDFEAB680193E8E752
:100B10003DB8F3961C0E0020697900002DE9F84FCE
:100B2000884691469A460026DFF868B01A4C1B4D5D
:100B30000B9B9E4201D300200FE00B9B40469F1B66
:100B4000B7F5806F28BF4FF48067124A3B4606EB2B
:100B50000A0104F001FB10B10120BDE8F88F0A99E9
:100B60003B465A464846711804F00BFB0028F3D167
:100B7000C4F800563E44C4F80456C4F80856C4F8F5
:100B80000C56C4F81056C4F81456C4F81856C4F8D5
:100B90001C56CDE7BC090020008001503546526E3E
:100BA0002DE9FF410E4600218E4B044643628E4BD9
:100BB0000365084603F067FF04F12001C0B200F0AE
:100BC000B7FF0121002003F05EFF04F14C01C0B229
:100BD00000F0AEFF0546204604F087F8074668B9E6
:100BE00000222046114604F029F8074600B30022EF
:100BF00057217E4804F0A2FA01238FE0802257217A
:100C00007B4804F09BFA01239F4284F85830E7D1D7
:100C100094F85830042B8DF8073000F28280012BB5
:100C200000F2858000F09C80FF2384F8583097E024
:100C3000204600F0A7F90028DED0684604F076F8D8
:100C40006946204604F011F918B13A46572169481F
:100C5000D0E7684604F073F880F001016A46204648
:100C6000C9B203F0EBFF02460028C0D1684604F089
:100C700066F8074660BB69462046FFF711FF9DF8FE
:100C8000073084F85830033B012B06D8384604F06F
:100C90003BF910B1FF2384F858309DF80730023B30
:100CA000022B0BD8002004F01DF938B1FF2384F883
:100CB00058304521504804F041FAFEE794F8583086
:100CC000FF2BF6D06A460021204603F0B7FF93E7DA
:100CD0009DF80780B8F1010F15D1104602F0E4FA33
:100CE000831E022B07460BD841462046FFF75CFEC9
:100CF000424B1B68984203D0012814BF05270127E7
:100D000084F8587084E701212046FFF74DFE3B4BE5
:100D10001B68984214BF05239DF8073084F85830AB
:100D200076E7052B80D1002004F0EEF813E0694649
:100D30002046FFF7B5FE94F858300546DA1E012A22
:100D40000CD8002004F0E0F8054600287FF46CAFD2
:100D5000002004F0C7F8054610B165E7022BF7D074
:100D600094F85830FF2B04D14521234804F0E6F9CC
:100D7000FEE7012B10D06A460021204603F05EFFFB
:100D8000054648B1E06C04F0E6F9206A04F0E3F9A6
:100D9000284604B0BDE8F08100212046FFF704FE9C
:100DA0000746DFF85880D8F8003098420FD110225B
:100DB0000021684604F074FA206A03F06DFE307179
:100DC000236A5B683460D8F80050B360DAE7E06CFF
:100DD00004F0C1F9206A04F0BEF9002D08BF3D46B9
:100DE000D6E700BFBC050020BC010020DA79000076
:100DF00098790000067A0000307A0000B8010020DF
:100E000038B5064D044660220021284604F048FA11
:100E100021462846FFF7C4FE38BD00BFBC0D0020A8
:100E200073B516461D4643B15B79012B07D121B935
:100E3000204B2A681B689A4217D8002418E0022B1E
:100E4000FBD12B68012B07D91A4A12689342F4D8B8
:100E5000B1FA81F14909F0E7EFD131B10129ECD1C3
:100E60002979023918BF0121E7E70021436A5C684C
:100E7000002003F008FE01A9C0B200F059FE30B115
:100E80000124019804F067F9204602B070BD2146A4
:100E900020233246019804F05FF904460028EFD180
:100EA000002DEED03468044BE41A18BF4FF0FF3425
:100EB000E7E700BF040000203DB8F3962DE9F04FAE
:100EC00007460C4685B001460020164603F087FE13
:100ED000051E50DB3846E46D03F08EFE5FFA84F9A0
:100EE0004FF0000A4FF0010B4FF0FF346B1E09FB6F
:100EF00003089DB9BAF1010F03DD4521204804F034
:100F00001DF9631C06D07F2C2ADC40F2011301344A
:100F10003460B380284605B0BDE8F08F6B1E0093A7
:100F20004146012338460DF10F0204F015F9031E66
:100F3000019322DB012238460DF10F0104F0B4FBCE
:100F4000019B40B15B4501D00AF1010A9B46009D1F
:100F5000A8EB0908CDE7B4F1FF3F08BF2C46F5E741
:100F60000223803C7371631004F0010401330134E7
:100F700033603471CEE70725CCE70125CAE700BF0F
:100F80003C7A000038B5816A426D914208D0531C0A
:100F90008B4205D05721134804F0D0F8002038BD0B
:100FA00080291CD957211048F6E7446A056D04EBE7
:100FB000C30405EBC30564686D68AC4202D05721D9
:100FC0000A48E9E701339A42EFD1914205D9436AD1
:100FD00003EBC2035B68A342F1D10120DFE70023EA
:100FE0001C46F0E75F7A0000977A0000C67A00009E
:100FF00000B589B0032004A904F0C8FB9DF81020B7
:10100000012A41D0254B2649032A08BF0B469DF8EB
:101010001320492102929DF81220224801929DF846
:1010200011200092204A04F089F8092006A904F052
:10103000ADFB9DF81820012A28D0184B1849032A27
:1010400008BF0B469DF81B20492102929DF81A20EB
:10105000144801929DF819200092144A04F06EF889
:101060009DF81030012B13D19DF81230032B0FD1B6
:101070009DF81830012B0BD00D48492104F05EF883
:10108000022009B05DF804FB0A4BC0E7094BD9E721
:101090000948492104F052F80020F2E7F27A0000F2
:1010A000FB7A00000F7B0000017B0000507B0000FA
:1010B000607B0000F67A00007F7B000070B54B6813
:1010C00014461E4A03F0FF23934206460D4686B09F
:1010D0002FD10B68012B2CD1204604A902F08EF8E9
:1010E0009DF81020012A26D0154B1649032A08BF67
:1010F0000B469DF81320492102929DF812201248B8
:1011000001929DF811200092104A04F017F89DF802
:101110001030032B0DD12146304603F051FE2046FE
:1011200004F027FB2046A96803F079FD204602F071
:1011300045F806B070BD064BDBE700BF00010004B8
:10114000F27A0000FB7A00000F7B0000507B000069
:10115000F67A00002DE9F04F05460C467D484921FE
:1011600089B0174603F0EAFF6B6A01225E6800232C
:101170003344BB42114602F10102F9D3764F2046B7
:10118000396003F0DCFD08B3E86D03F023FDAB6AC2
:1011900003F1FF3800233344834202D208F1FF38C1
:1011A000F9E73B68434511D357216C4803F0C6FF6C
:1011B0003A6808FB06F3572102FB0662684803F011
:1011C000BDFF0123E37109B0BDE8F08F06A903203C
:1011D00000F0AEFC07A9092000F0AAFC2146284631
:1011E000079AFFF76BFF6379012B0BD1D7F80080CB
:1011F000DFF870B13B68DDF81890B8F1000F11D13D
:101200000123236002234FF0010863713B68DDF87E
:1012100018A0984549D9504603F09DFF079803F060
:101220009AFFD0E7226801339B1A98453AD86B6A37
:10123000012A196853F8380003EBC80353F8083C37
:10124000A0EB010AA3EB0103049311D1079B0393C5
:10125000E368022B08D04946284603F0B1FD224638
:101260004946284603F0E2FD2846039903F0A8FD0D
:1012700032465146484603F0A1FD049B4A46494682
:101280002846CDE900A6FFF749FC2146284603F091
:1012900063FD23680133236020B1DBF800300133A4
:1012A000CBF8003008F1FF38A4E7236898454ED307
:1012B0006A6A4FEAC80352F83810083B0491116873
:1012C000DDF81CB00391D1582A6DD0581368A0EBFB
:1012D00003092379012B38D1039B3246C91A5046A2
:1012E000059103F06BFD05994B4652460091284647
:1012F00059460196FFF712FC2146284603F02CFDC3
:101300000223237118B1174A136801331360324660
:101310004946584603F052FDDDE9032351469B1A26
:1013200028465A46CDE90096FFF7F8FB21462846A5
:1013300003F012FD2368013323600123237130B1D0
:10134000084A13680133136001E0022BDFD008F173
:1013500001085BE7967B000004000020BF7B0000D3
:10136000EE7B00001C0E0020BFF36F8F72B60023CF
:101370004FF0FF30094A03F120010133102B42F8EE
:101380002100F8D100234FF0FF30044A03F160013F
:101390000133102B42F82100F8D1704700E100E042
:1013A00038B501224FF0FF3400251A4B29465A6008
:1013B000C3F84843C3F8084303F580535A60C3F8A1
:1013C0004843C3F80843A3F55043C3F800558022AF
:1013D000C3F80843104803F063FF802229460F48F2
:1013E00003F05EFF0E4B8022C3F800552946C3F878
:1013F00008430C4803F054FF802229460A4803F0B2
:101400004FFF0A4BC3F808454FF05023C3F8084379
:1014100038BD00BF004001508080005080810050E6
:10142000009000508090005080910050007001505A
:10143000014B1B68184700BF08000020014B1860D3
:10144000704700BF0800002007B50B460021024688
:101450000091034800F014F903B05DF804FB00BFED
:10146000311400002DE9F047058B0446280790460B
:1014700011D4022905F0070540F0CD80204603F085
:1014800083FD78B10138218B042811D8DFE800F002
:10149000C3106D85950001290CBF45F0100545F07E
:1014A0002005258388F31188BFF36F8FBDE8F0878F
:1014B00001F0070AAA4500F0A6800027B9463E467B
:1014C000A368002B00F0BD8041F00801218388F360
:1014D0001188BFF36F8FA168002900F0BB800D68F1
:1014E000002900F0B780334652462046D1F80480E8
:1014F000C047002D76D02B6829461D46F0E701F045
:1015000007035A1F012A1BD8002221F00701062BCE
:10151000276889B2C4E9002209D13B4603E0628B07
:10152000013262831B68002BF9D141F00201204691
:10153000218303F029FD00287BD041F0200177E0D2
:10154000042B0AD121F0070189B22046218303F040
:101550001BFD10B141F020012183218B01F0070A0E
:10156000AA4550D00027B946AAE7236921F0070110
:1015700041F00601062DD3F8009021832DD1B9F159
:10158000000F40D041F00801218388F31188BFF398
:101590006F8F20463949C84729E021F007012369A8
:1015A00041F0040189B2042DD3F804902183E6D0E0
:1015B00000274FF0040A3E4682E721F00701236925
:1015C00041F0050189B2052DD3F808902183D6D0CA
:1015D00000274FF0050A3E4672E700274FF0060A43
:1015E0003E466DE72B4687E7B9F1000FD1D14FF0AA
:1015F0002003EFF3118883F31288BFF36F8F238BDF
:1016000023F008032383258BEA062ED525F010034B
:10161000238305F007056669218B002EBFF66FAFA7
:1016200000232768C4E9003321F0070141F00101DC
:101630002183218B4FF0000901F0070AAA457FF4AE
:101640003FAF002F9BD041F00801218388F3118820
:10165000BFF36F8F002FC7D03D68394633465246DF
:10166000204603F0BDFC2F46F4E7AB067FF51AAF2A
:1016700025F02003238305F00705FFE60D50000049
:101680002DE9F04F82464FF000098DB01D46531EE4
:1016900001910393039B58785C1C252819D10020E5
:1016A0004FF0FF381E46444603460236029031781A
:1016B0000396392955D81F2914D8002900F0F18143
:1016C00001992520D04701993078D04709F10209C6
:1016D000E0E7002800F0E5810199D04709F1010910
:1016E0000394D7E7A1F12002192AE9D801A757F8F6
:1016F00022F000BF5D170000C1160000C1160000F7
:101700005D170000C1160000DD170000C1160000C3
:10171000C1160000C1160000C11600002918000003
:101720005D170000C11600003D180000E917000019
:10173000C1160000F7170000171800001718000066
:1017400017180000171800001718000017180000DD
:101750001718000017180000171800000846013677
:10176000A5E7582900F0EE80A1F16302D7B2172F48
:10177000A6D8172AA4D801A757F822F0EB19000021
:1017800063180000C1160000C1160000C116000059
:101790004318000063180000C1160000C1160000C5
:1017A00043180000C1160000C1160000C116000059
:1017B0001F190000C1160000C1160000BF1900006B
:1017C000C116000063180000C1160000C116000019
:1017D0001F190000C11600004318000025200199C0
:1017E000D04709F1010955E7029A4FF0000802F0CD
:1017F000FE020292B3E7002C0DDAB8F1000F0DDA09
:10180000029A002A00F045810A2224EAE47402FBCD
:101810000414303CA3E7B8F1000FF5DB0A2202FB09
:101820000812A2F130089AE7B8F1000F55F8042B1E
:1018300080F23181002A80F23081544202220292E9
:101840008DE7682903D1682B06D1482387E76C29E7
:1018500002D16C2B00F02381002B7FF431AF0B46BB
:101860007DE77A2B06D1752955F8046B14D14FF01A
:10187000000B0CE06C2BF6D04C2BF4D1073525F087
:101880000703752903F10805D3E9006B06D1202869
:101890003ED1864F013C09E04FEAE67BBBF1000FE9
:1018A000F5DA7642824F6BEB4B0B013C0DF12D03C9
:1018B000059300230493304659460A220023FEF77D
:1018C00041FC049B303203F1FF3CCDF810C0DDF841
:1018D00014C00CF8012DCDF814C0B4465A46BCF122
:1018E0000A0F72F1000206468B46E4D2C3F1010BE7
:1018F00030330DEB0306B8F1000FA6F104066DDAE4
:10190000029BD9077CD4A8EB0B03A4EB0B0413E0D8
:101910002B280ABF674F684F04F1FF34C6E77029D0
:101920000FD155F8042B0023FAB96FF004034FF0E0
:10193000050B624E053C604F029A92076FD4A04699
:1019400065E078216C2B03D1002355F8042B08E0C7
:101950004C2BF9D1073525F007031D465B6855F878
:10196000082B232825D1880621D5554F023C002677
:1019700001F06001A1F1390B0DF12D0E02F00F0104
:10198000092988BF594430310EF8011D102A4FEA49
:10199000121141EA03714FEA131073F1000306F1CB
:1019A000FF3C08D2C6F1010B06F13003A1E7454F19
:1019B000DCE7414FDBE766460A460346DEE755F8BB
:1019C000046B304603F04AFCB8F1000F834602DB9B
:1019D0004045A8BFC3464FF00008374FA8EB0B03A4
:1019E000002B92DDA4EB0804A6E755F8043B4FF06A
:1019F000010B8DF81830013C4FF0FF3306AE9AE72B
:101A0000A046EBE7029320200199D047029BB8F152
:101A10000108F7D524EAE472013C9144A41AB846BF
:101A200006E0049302920199D047029A049B9046E3
:101A3000424612F8010B0028F3D11A46013A15D597
:101A4000002BACBFC7EB03077F425B46013B15D5BC
:101A5000BBF1000FA8BF5F4426464F44013E14D59A
:101A6000002CA8BF3F1907EB080913E60493029264
:101A700030200199D047049B029ADFE70293019935
:101A800016F8010BD047029BE0E701992020D047D0
:101A9000E4E70122D3E6904661E614465FE64C2374
:101AA0005DE648460DB0BDE8F08F00BF168100002E
:101AB0003E7D0000407D000070840000487D0000F5
:101AC000427D0000457D000008B54FF02002EFF395
:101AD000118382F31288BFF36F8F00F09DFB0348E0
:101AE00003F045FA00F088F8FCE700BF4E7D0000E7
:101AF0004FF02002EFF3118382F31288BFF36F8F50
:101B00000121044AC2F8401583F31188BFF36F8F97
:101B1000002070470090035020B1034B800143F038
:101B200001031847704700BF5074000001F0A6BFC2
:101B300070B5114B0D461C68DCB1104B19680023C1
:101B40008B4202DB6FF0010070BD224612F8106B71
:101B5000864202D014460133F2E7E06810B96FF014
:101B60001200F1E705F0BAFA0028F8D000202C6046
:101B7000EAE76FF00C00E7E70C0000206874000053
:101B800070B588B005460C46C0B269461646FFF7E8
:101B9000CFFF00281BDB0098C8B14368226802937E
:101BA00083680195CDE903360023CDE9062305932B
:101BB000C56803F0D0FA6DB12846084901AA03F0C0
:101BC0009DFC079808B9059B236008B070BD6FF0B5
:101BD0001500FAE76FF01200F7E700BFF1510000BF
:101BE000014802F0D7BD00BF3C750000014910223A
:101BF0000A60704710ED00E072B6404080F3118833
:101C0000BFF36F8FBFF34F8F30BF62B6BFF36F8FDD
:101C1000704700BF72B6494081F31188BFF34F8F00
:101C200020BF80F3118862B6704700BF37B5054604
:101C30000C46C9B18B6810480093D1E900234521B7
:101C400003F07CFA636945210093D4E903230B4830
:101C500003F074FA4521E269094803F06FFA45215F
:101C6000A269084803F06AFA2146284603B0BDE895
:101C7000304002F0C9BB00BF7B7D0000AF7D00009B
:101C8000E37D0000F77D000040B2002807DB012360
:101C90004109034A00F01F00834042F82130704799
:101CA00000E100E0054B420953F82220012300F037
:101CB0001F0003FA00F01040704700BF00E100E091
:101CC00040B2002801F10101ACBF00F16040064BB9
:101CD0004FEA4111C9B2ABBF00F5614000F00F00FF
:101CE00080F800131954704714ED00E030BFFFF77F
:101CF000FDBF00BF0B4A08B50B4B22F07F029A6074
:101D0000BFF34F8FBFF36F8FD3F8882022F4700298
:101D1000C3F8882002F0F0FB02F032FC00F040FA39
:101D200002F0F6FB0000000000ED00E01EF0040FE2
:101D30000CBFEFF30880EFF30980816911F8021CF2
:101D40000229FFD001B503F07AFA01BD0446084626
:101D500011461A46002383F30B880A4B2025A3F56E
:101D6000205686F30B8883F3098863B64FF000038F
:101D700083F31188BFF36F8FA04785F31188BFF3FA
:101D80006F8FFEE7E857002001B5EFF30580A0F163
:101D900010004FEAC0000449014409C99847BDE852
:101DA0000140024908470000C8710000B11D000051
:101DB000704700BF38B5214C4521214803F0BEF9DA
:101DC000A36A9D0103D545211E4803F0B7F9A36A14
:101DD000DC0103D545211C4803F0B0F9174DAC6A6E
:101DE00014F4801404D04521184803F0A7F9022404
:101DF000AB6A180303D54521154803F09FF90F4D31
:101E0000AB6A590303D54521124803F097F9AB6A31
:101E10009A0303D54521104803F090F9074DAB6AAA
:101E2000DB0303D545210D4803F088F9AB6A204652
:101E30006FEA03436FEA1343AB6238BD00ED00E085
:101E40002A7E0000477E00005F7E00007E7E00004C
:101E5000AD7E0000D07E0000FA7E0000197F0000F9
:101E600070B5234C06460D462248452103F066F91D
:101E7000A36AD90403D545211F4803F05FF9A36A7B
:101E80001A0503D545211D4803F058F9184CA36ADB
:101E90009B0510D51A48452103F050F9A26BA36A9F
:101EA000180408D54521174803F048F91EB1A36A64
:101EB00023F40043A3620E4CA36A590503D54521C0
:101EC000114803F03BF9A36ADA050BD545210F4809
:101ED00003F034F90020064A936A43F47F43936287
:101EE000287070BDA36A9B04F4D545210848EFE72C
:101EF00000ED00E0497F0000647F00007A7F000071
:101F0000927F0000B07F0000CA7F0000EA7F0000DF
:101F10000780000070B5264C06460D462548452131
:101F200003F00CF9A36AD80603D54521224803F033
:101F300005F9A36A190703D54521204803F0FEF8E7
:101F40001B4CA36A9A0710D545211D4803F0F6F8EB
:101F5000626BA36A1B0608D545211A4803F0EEF808
:101F60001EB1A36A23F08003A362114CA36ADE07AB
:101F700003D54521144803F0E1F8A36A980603D578
:101F80004521124803F0DAF80020094B9A6AD1067D
:101F900058BF9A6A9A6A920642BF5A6A22F400525D
:101FA0005A629A6A42F0FF029A62287070BD00BFBE
:101FB00000ED00E03B800000568000007A7F0000CA
:101FC0008E800000AB800000C6800000078000000B
:101FD0002DE9F0415C4B05465F6800268AB0C7F3E7
:101FE000080486F31188BFF36F8F02F07F43B3F1CB
:101FF0007F4F07D102F00C03082B14D14521534821
:1020000003F09CF8002635464FF00008E31E8DF8DB
:102010000780092B00F28680DFE803F00A797D75DE
:1020200084848484848110074CBF0D460126EBE72D
:1020300045214748444C03F081F88DF80780E36A56
:102040009A0705D54521434803F078F8002432E08B
:10205000E36A002B02DA45213F48F5E7E36A5B00BB
:10206000F4D545213D4803F069F86369AA6943F452
:1020700080736361BFF34F8FBFF36F8F636932F873
:10208000022C23F480736361BFF34F8FBFF36F8F14
:102090004DF602739A4208D0A36ADBB22BB301203B
:1020A0000DF10701FFF736FF2FE045212A682C4884
:1020B00003F044F82C689DF807309BB9202229468C
:1020C00002A803F0E2F8099B002E38D0C3F30802FF
:1020D00022B96FEA53236FEA43230993204602A9EA
:1020E000FFF7A4FD0AB0BDE8F081A36A13F47F4FA7
:1020F00005D001200DF10701FFF7B2FE05E0A36A4C
:10210000B3F5803FA2D3FFF755FE0446D3E7002086
:102110000DF10701C6E700200DF10701ECE74521AD
:10212000104891E7104917F4F87F104A104808BF8B
:102130000A46A4F11003452103F000F886E723F4D2
:10214000FF7323F00103C8E700ED00E018810000F1
:1021500048810000648100008A8100009D810000A8
:10216000C1810000E2810000EA800000FF800000E1
:102170000B820000044B5A6942F010025A615A69FE
:1021800042F480625A61704700ED00E0EFF308808E
:10219000EFF3098101B57246FFF71AFF01BD00BFD9
:1021A000002320210348C2180133412B82F8001379
:1021B000F9D1704700E100E0002080F31488BFF3FC
:1021C0006F8F002080F30A8880F30B88FFF7AEFC46
:1021D00000200E490860BFF34F8F0D4880F3088838
:1021E00000F03EF8202080F311880A484FF4006187
:1021F000401880F30988EFF314800221084380F32C
:102200001488BFF36F8FFFF775FD000094ED00E0B9
:10221000E8570020E8270020BFF34F8F0549064B01
:10222000CA6802F4E0621343CB60BFF34F8F00BF74
:10223000FDE700BF00ED00E00400FA0500231846AA
:102240000649D1F89020C2F30722934200DB704781
:10225000C1F89830C1F8A0000133F6E700ED00E0C6
:1022600010B572B6002484F31388FFF7E7FF234606
:102270004FF0FF300C4A03F120010133102B42F8DC
:102280002100F8D100234FF0FF30074A03F160012D
:102290000133102B42F82100F8D162B6BFF34F8F03
:1022A000BFF36F8F10BD00BF00E100E0014B18606D
:1022B000704700BF10000020084B70B5C31A0D46D0
:1022C00007499B10044659434022064803F010F882
:1022D0002B4601462046BDE870401847340E0020CA
:1022E000B76DDBB668710000402373B50B4C0093EB
:1022F000041B0B460D460A49A41061430646094AD1
:10230000094803F021F8011E05DA30462B4602B0D9
:10231000BDE87040184702B070BD00BF340E002009
:10232000B76DDBB6B95300006871000010B54FF00F
:102330002003EFF3118483F31288BFF36F8F074AF2
:10234000136823F00201DB07116002D4012004F0BE
:10235000B9FE84F31188BFF36F8F10BD840E002087
:1023600070B50022012104460520FFF7A9FC0F48A3
:1023700001F07EFC0E4B984215D104F055FE266903
:102380000C49304602F050FE00280BDB0125356475
:102390002469084904F11C0002F046FE002801DB14
:1023A0000020E56470BD6FF00400FBE7ED23000042
:1023B0000000AD0B4475000001460C23002270B5EF
:1023C0004B430848C4184033D4E90E561844A2635E
:1023D00002F07BFF2DB132462B46BDE8704002482B
:1023E000184770BD340E00206871000010B101283C
:1023F00004D07047034B1B6C5B0701D1FFF7DCBFB8
:10240000704700BF340E002008B54FF02003EFF3F3
:10241000118183F31288BFF36F8F124A136843F060
:1024200002001060DA0708D481F31188BFF36F8FC0
:10243000BDE80840012004F005BE4FF05023D3F85A
:102440000C24D3F80C34D307EED5074802F03DFF37
:1024500081F31188BFF36F8FBDE808400020FFF7BC
:10246000ABBF00BF840E0020740E00202DE9F8439E
:10247000012207463449D1E8EF3FC1E8E02F0028A8
:10248000F9D133B9314932484B60CB608A6002F0F0
:10249000DEFD7B1E012B2DD8012F07D14FF05023DD
:1024A000D3F81C3403F00303022B23D004F025FEE1
:1024B000054608BB274B1B78F3B14FF0502302228F
:1024C0000646C3F808234FF050244FF00008DFF809
:1024D0008890D4F81834D4F81824D20316D503F011
:1024E0000303022B01D0012F10D13DB386F31188D5
:1024F000BFF36F8FBDE8F8834FF02003EFF3118631
:1025000083F31288BFF36F8F0125DCE73046FFF7B6
:1025100081FBD4F81835DBB2012BDAD1D4F80421D1
:10252000002AD6D0C4F80481D4F804210222C4F8C9
:1025300018252022C9F88021A360CAE74FF0502354
:102540000222C3F80423D5E7300E0020200E00201D
:10255000500E0020E227002000E100E008B5074807
:1025600004F0BCFD38B10648FFF7A0FE0448FEF7B2
:1025700065FF002008BD6FF01200FBE798710000B6
:10258000852500000A2838B50446074D04D1AB68FC
:102590000D2128465B689847AB6803485B68E1B249
:1025A0009847204638BD00BF9871000030B540689C
:1025B00001F01F04057BB2F5001F85B044EA451405
:1025C00005D1204601F0E8FD002005B030BD002512
:1025D000B2F5800FCDE9025514D1B3F1007F0CBFE5
:1025E000042305238DF8083000232046194602AA4B
:1025F00001F008FC1C4B984233D10121204601F028
:1026000087FDE1E7B3F1C06F20D0B3F1007F14BFC5
:10261000012302238DF808308368CB40D907E3D427
:10262000B2F1A07FE0D1114A04F01F03803352F8C9
:102630002330DB07D8D40DF107052946204601F0E9
:1026400013FD0B4B984203D00395CDE70323E1E73D
:10265000284601F057FD044B9842F5D06FF00B006F
:10266000B3E76FF01500B0E70000AD0B0025845014
:102670000400AD0B10B501F035FD044668B901F05A
:1026800009FD084B98420AD12146074801F0E6FCB3
:10269000224605210D20FFF713FB002010BD6FF02F
:1026A0000400FBE70000AD0BAD260000430970B548
:1026B00007D10B4B596821B101250C68094E8540A3
:1026C00001B970BD8A682A4002D030464B689847ED
:1026D0001CB1236821461C46F2E72346FAE700BFF7
:1026E000880E0020807100002DE9FF41476801F04D
:1026F0001F053B7B144645EA43150E4628460DF15F
:10270000030101F0B1FC14F4403F80460BD1284690
:1027100001F06AFD3C4B984503D19DF8030001F0A0
:10272000EBFC00200CE000232846194602AACDE964
:10273000023301F067FB344B984204D06FF0150070
:1027400004B0BDE8F081804503D19DF8030001F09D
:10275000D3FCA30349D540F206332340B3F5837F6E
:1027600019D00CD8062B17D004D8ABB1022BE5D169
:10277000042311E0B3F5807FE0D101230CE040F2A7
:102780000222934226D0B3F5407F25D0B3F5007FD7
:10279000D4D1022300E007238DF8043084F4803381
:1027A000C3F30043E0068DF805304CBF0323C4F3A8
:1027B000401321038DF8063010D501237A68B34009
:1027C00093600022284601A901F0C8FB0E4B9842F5
:1027D000A7D0B3E70523DFE70323DDE7620341BFAB
:1027E00001237A68B340D360EBE7E3064FF00003C0
:1027F0004CBF0324C4F340141A46284601A98DF89F
:10280000044001F0FFFAE1E70000AD0B024B0B6062
:1028100001231360704700BF940E002000487047EA
:10282000CC75000010B504F055FC034C206004F09A
:102830004EFC6060002010BD940E0020F8B50E46DE
:10284000144604F044FC21460546304602F010FED2
:10285000374600B3B6FBF5F305FB136323B9B4FBAE
:10286000F5F305FB134343B12346324645210C489B
:1028700002F064FC6FF0150002E0A54201D90020CF
:10288000F8BD04F024FC0546384601F08FFD641BBA
:102890002F44F9D1F3E72346324645210148E7E7C3
:1028A0005482000078820000F8B50E461946304682
:1028B00017461D4602F0DCFD40B92B463246452145
:1028C000114802F03BFC6FF01500F8BD46EA050424
:1028D00014F0030404D02B46324645210B48F0E7A0
:1028E0004DB12B19032BA6EB040006D8084AD2F8E9
:1028F0000034DB07FBD50020E7E73B1B196801F03C
:1029000073FD043CEDE700BF788200009A8200006E
:102910000090035070B50D461946284616461C46D1
:1029200002F0A6FD40B9084823462A46452102F098
:1029300005FC6FF0150070BD24B1224629463046D3
:1029400002F0A3FC0020F6E778820000F8B5044608
:102950000D46076904F0D1FB90B92C4B1B787BB175
:102960006426606802F019FEE0B9012004F000FB63
:10297000013EF6D1F4E786F31188BFF36F8FEFE7DE
:102980004FF02003EFF3118683F31288BFF36F8FAC
:102990006068314602F001FE90B986F31188BFF3FA
:1029A0006F8FEDE74FF02003EFF3118683F312886A
:1029B000BFF36F8F6068314602F0EFFD0028DAD078
:1029C0003B691D70626838691368C3F844050120CB
:1029D000C3F848050020C3F82001D3F82051C3F8FC
:1029E00058015268D3F85801D20608D50820626809
:1029F0001268C2F800054FF48002C3F804230122D4
:102A00009A6081F31188BFF36F8FF8BDE227002031
:102A1000F0B54B79012B26D0032B21D110258B79D2
:102A2000032B1DD1CE790EB1012E19D10A7912B125
:102A3000022A15D10E220B684468B3F5164F276899
:102A400067D02DD8B3F5165F66D016D8B3F5966F5C
:102A500064D00AD8B3F5967F63D0B3F5167F63D000
:102A60006FF0850054E00025D9E7B3F5166F5ED00E
:102A7000B3F5965FF4D1384B3CE0B3F5E14F59D054
:102A800007D8B3F5615F57D0B3F5964FE8D1334B14
:102A900030E047F61224A342E2D14FF4000329E0CC
:102AA000B3F5613F4AD013D8B3F5963F49D009D862
:102AB0004DF6C024A34246D0B3F5614FD0D14FF4B8
:102AC0006B0317E0B3F5E13FCAD14FF0EB7311E0B0
:102AD000B3F5612F3AD008D8214CA34239D0B3F5D1
:102AE000E12FBDD14FF0E86304E01E4CA342B7D103
:102AF0004FF080530469C7F82435436835431B6899
:102B00002A43C3F86C25231D03C983E80300002072
:102B1000F0BD4FF41D03EDE7134BEBE74FF49E239D
:102B2000E8E74FF4A033E5E74FF41C33E2E74FF456
:102B30001D23DFE70D4BDDE70D4BDBE74FF06C733B
:102B4000D8E70C4BD6E74FF46503D3E74FF070633B
:102B5000D0E74FF08063CDE700B0130000A04E0037
:102B600090D0030040420F000050270000C07500C5
:102B700000F03A0000903A012DE9F7438046002228
:102B800001210820FFF79CF80820FFF77DF80021BD
:102B9000D8F80470D8F810603C6801AAC4F8001591
:102BA000C6F80080D7F80C90484602F04BFD051E91
:102BB0001EDB019BD9F800201979186800F052FA41
:102BC000051E15DB4046311DFFF722FF054678B98B
:102BD0007B6899071DD506F1180001F08DF8214B8F
:102BE000984209D04521204802F0A8FA6FF0040568
:102BF000284603B0BDE8F083337E43F00043C4F8B9
:102C0000A031C4F88C300123327E9340174AC2F8B9
:102C100004350823C4F800353B7A53B9C4F81031A1
:102C2000D4F810317369C4F834350123C4F8383549
:102C300023607B689A075CBF4FF48073C4F8043349
:102C40007B68DB0644BF4FF48003C4F80433336968
:102C5000C4F844350023C4F848350123A360E36079
:102C6000C6E700BF0000AD0BDE820000007001501F
:102C70000123834070B5DC430B4AD2E8EF1F01EA21
:102C80000405C2E8E65F002EF7D14FF4803282409F
:102C90000648C0F80823BFF35F8FBFF36F8F0B4266
:102CA00014BF0120002070BDA00E00200050015074
:102CB00070B40E4922F07F46D1E90034D01AC3180F
:102CC00044F10004C1E90034A6F50013B3F5400F48
:102CD00009D2074B1B681A0A1B069C19054B42F1C7
:102CE0000005C3E9004570BC01F0AABC200100202A
:102CF000A40E002028010020D9B101230D4A8340F1
:102D0000D2E8EFCF4CEA030CC2E8E1CF0029F7D1BB
:102D10004FF48033084A8340C2F80433074BD3E8AA
:102D2000AF3FC340DB0742BF4FF40012044BC3F870
:102D300000217047A00E0020005001509C0E002082
:102D400000E100E00D4B1868010A0006BFF35F8F39
:102D50000B4BD3F80435181841F10001B3F5801F6F
:102D60000AD2084BD3E90023904271EB030303D24C
:102D700010F1807041F10001704700BFA40E0020E7
:102D800000500150280100202DE9F74F16461F463C
:102D90000446FFF76DFF0090FFF7D4FFB04271EBE0
:102DA000070350D2384B301A67EB0101984271F19A
:102DB000000165D2354B03EB0413D3E902239F4294
:102DC00008BF964249D04FF48039314909FA04F9D5
:102DD000204626F07F4BC1F8489302F027FC4FF0C5
:102DE000030A584604F15005AD00ADB205F1502577
:102DF00004F5A873274A05F580350193DDF804C072
:102E000020F07F4341F82C30C1F84493D1F8048579
:102E1000A0EB0800033820F07F4090421DD92868BD
:102E200060B1D1F80485A8EB0B0020F07F40B0F52D
:102E3000000F12D9204602F0F9FB164A0AEB0800EF
:102E40000AF1010ADAE70123134AA340D2E8EF0F9F
:102E50001843C2E8E10F0029F8D100250B490C986E
:102E6000230101EB0412C850C2E902670D9B5360B5
:102E700020460099FFF740FF284603B0BDE8F08FD9
:102E80006FF01505F4E700BF01008000100100207D
:102E900000500150FDFF7F009C0E002073B5002400
:102EA0004FF0FF304FF0FF31164D174BC5F8084576
:102EB000C3E902014FF4803302264FF40012C5F833
:102EC0000433124B0121C5F804631520C3F8802197
:102ED0002246FEF7F5FE1520FEF7D6FE01230C4A2A
:102EE000AB602B6013600B4B0B4A00932046002312
:102EF0000194FFF749FF3046FFF7B8FA204602B0C9
:102F000070BD00BF005001501001002000E100E042
:102F1000A00E0020B12C0000FFFF7F002DE9F74339
:102F20002E4BD3F8042390070BD5D3F8042142B1DC
:102F30000022C3F804212A4AD3F80431136801336C
:102F40001360264AD2F80433D90327D5254BD3E89A
:102F5000EF1F21F00100C3E8E40F002CF7D1CB07ED
:102F600002D4D2F84031CBB100251C4CC4F84051FA
:102F7000D4F84031FFF7E6FE4FF02003EFF3118263
:102F800083F31288BFF36F8F174BD3E90267B04208
:102F9000B94106D282F31188BFF36F8F03B0BDE849
:102FA000F0834FF0FF38D3E900104FF0FF391D6078
:102FB000C3E902894FF48033C4F84833C4F8405160
:102FC000D4F8403182F31188BFF36F8F0029E5D028
:102FD000009032463B4628468847DFE700500150C4
:102FE000A40E00209C0E002010010020431C13B5ED
:102FF00021D0012821DD124A124B9042D4BF044651
:103000001C46FFF79FFE104B0E49D3E90023801AA0
:10301000B0F5000F28BF002404448C4228BF0C46A2
:1030200000200A49A2180190009143F10003FFF724
:10303000ABFE02B010BD034CE3E70124E1E700BFA3
:10304000FEFF7F00FFFF7F0020010020B12C000069
:1030500008B5FFF777FE024B1B68C01A08BD00BF1A
:10306000200100202DE9F04101273F4E00EB8101B6
:10307000814202D10020BDE8F081056805F07F03A0
:10308000C5F343247F2B4FEA154508BF4FF0FF33AC
:10309000192D66D8DFE805F00D161B1E212D1E65C3
:1030A0006565653151656565656565656565545C32
:1030B0005F62C2F80C3503F01F0507FA05F5B5602D
:1030C000012502E0C2F814350025AC461CE0C2F828
:1030D0000835F0E7C2F81035F6E70025C2F80835E4
:1030E00003F01F0C07FA0CFCC6F80CC04FF0010CE3
:1030F0000AE0C2F80C350125F2E7C2F80835002CC9
:10310000E2D100250624AC4650F804EB24020EF46C
:103110000058B8F1000F1CBF4FF0000C0125CEF392
:10312000C11E44EA8E0403F01F0344EA0C0444EA7F
:103130004504803346F823409AE7C2F80C35DEE7B1
:10314000C2F860350568C5F38035002DD3D0B2E7ED
:10315000C2F86435F6E7C2F86835F3E7C2F86C35B3
:10316000F0E76FF0850086E70025845040EA010310
:10317000C3F30E0330B58BB940F21515094CC90BDA
:10318000C0F3C730994201D1002030BDC218D2B27D
:1031900002F5C07244F822500133F3E76FF01500D6
:1031A000F3E700BF003000500348452108B501F0A7
:1031B000C5FF0020FFF730F81C83000030B58168A0
:1031C00085B0103921F00704054602F00AF81022F4
:1031D0000146684602F064F810226846064902F08B
:1031E00054F810236A462146284601F0CAFF0038E9
:1031F00018BF012005B030BDD077000030B50D46B6
:10320000816887B0102302AA1039044601F0A4FF98
:10321000002802DA012007B030BD1022204602A9A2
:1032200002F042FA00283AD110221E4902A802F008
:103230001CF800280CBF012302232B70204602F04B
:103240001FFA012301460DF10702204601F084FF19
:103250000028DFDB9DF80730204603F00F021B0932
:103260006A702B7101220DF1070102F01DFA10B9ED
:103270006B78042B03D901236B7000232B71A26898
:103280002046183A22F00702083AA91C02F01FFA59
:103290000028BFD12046E91C02F072FABBE70323E5
:1032A000CBE700BFD07700007FB505466946032015
:1032B00002F06CFA044610B1FF2004B070BD092082
:1032C00002A902F063FA012836D12A46492128488A
:1032D00001F034FF274B8DF80C40029300229DF83B
:1032E00000509DF80860244C2946207802F0CEF961
:1032F00048B33146607802F0C9F920B3A378042BB3
:1033000003D09DF8031099421DD1E378042B03D01C
:103310009DF80B10994216D12379042B0FD16379B4
:10332000022B1BD1154A1648492101F007FF60798D
:10333000831E022BC1D9BFE70028CFD0BCE79DF880
:1033400002109942EBD00132032A04F10604CBD1DA
:103350000C48492101F0F2FE0120AEE7032B05D015
:10336000094A0A49042B08BF0A46DCE7084ADAE79B
:103370006183000003010303D48300004383000042
:10338000AC830000BF830000488300005A83000024
:103390003E83000001680E4A0346914215D1C1697F
:1033A000A2F11022A2F1EF1291420ED18268012AFD
:1033B0000BD8C26812B101698A4206D0586928B197
:1033C0009B691B1A5842584170470120704700BF43
:1033D00055AA00FF70B50D4B9E68A6B13046FFF7A9
:1033E000D9FF044678B9F3686BB935690DB9204641
:1033F00070BD2846FFF7CEFF28B9EB68B34202D173
:103400002E462D69F2E70124F1E700BFA80E002047
:103410002DE9F8433F4F3C68D4B1BC68C4B10028E3
:103420004AD0002948D001FB00F5B5FBF0F08842F6
:1034300042D1281D40D8A9070DD025F00306043637
:10344000FC6803E06368B34238D2A469002CF9D168
:103450002046BDE8F8832E46F2E7FB6041E006F126
:1034600020016318203A5A600022C3E902242A4846
:1034700022691A6160502949D96102B1D360626939
:103480005A61A1699961AAB193619A6902B15361C4
:103490004FF0010923610023C4E90169C4E9053340
:1034A0003B69DB072ED5FFF795FF58B31C4B484609
:1034B0001B6826E0FB60E8E70024C9E7A3681BB1AE
:1034C000174B01201B689847626804F12008921B83
:1034D000232AC4D80123A360D4E90523002ABCD041
:1034E0009361A3690BB162695A610023C4E9053392
:1034F0003B69DA0706D5FFF76DFF18B10120084BCD
:103500001B6898472A4600214046444601F0C8FE01
:103510009EE700BFA80E002055AA00FF669911EE95
:103520003000002070B50546002800F08880444E29
:103530003368002B00F08380B268002A7FD083427A
:1035400003D872681344984203D33E4B01201B6892
:103550009847A5F120042046FFF71CFF18B1394B0E
:1035600001201B68984755F8183C012B03D0354BB8
:1035700001201B689847002345F8183C55F8143C77
:103580003BB39A682ABB55F81C2C02F120015A68FB
:103590000A445A6055E905321A6155F8145C2B69E2
:1035A00003B1DD6020220021204601F079FE286968
:1035B00010B18368002B2ED033699B073FD5FFF7EE
:1035C00009FF00283BD0BDE870401E4B01201B685E
:1035D000184755F8100C00282AD0836843BB42686E
:1035E000636813442033636003692361D4E90523CE
:1035F0009AB9CBB9436963618269A261B3B19C6135
:10360000A36903B15C61236903B1DC60202200215E
:1036100001F046FED0E72C46E1E79361A369002B59
:10362000E8D062695A61E5E7F360F7E7F460E7E73D
:10363000F36845F8083C03B15C61F460BCE770BD19
:10364000A80E00203000002038B50C4614220021BE
:103650000546134801F024FE1249134800F034F8DF
:10366000232C1CD915F003031FBF043CE418C3F13D
:103670000403ED1822460021284601F011FE084BF4
:103680000A49C3E90054203C9D606C609A6811604F
:103690009A68A1F11021A1F1EF11D161DA6038BD72
:1036A000A80E0020253500001134000055AA00FFA7
:1036B000014B1B68184700BF38000020014B1B68F6
:1036C000184700BF34000020024B1860024B002056
:1036D000196070473800002034000020F8B500F170
:1036E00008064768044630460D4602F0F6FB87425E
:1036F0004BD16368B3F5807F47D80021304602F094
:1037000057FD002841DD0021304602F0B8FBE0B350
:1037100045B9294604F1140002F04AFD002834DDC1
:103720000020F8BD04F12C050021284602F040FDE0
:1037300000282ADD0021284602F0A1FB28B304F16D
:1037400038050021284602F033FD00281DDD002148
:10375000284602F094FBC0B1002104F1140002F0ED
:1037600027FD002811DD002104F1440002F020FDB6
:1037700000280ADD002104F1500002F019FD0028A4
:1037800003DD002104F15C00C6E70148C9E700BF82
:1037900080BFFFFF70B500210446FFF79FFF05467D
:1037A00010B10E4D284670BD04F10806304602F0F7
:1037B00076FB7F28F5D914342946204602F05FFBBA
:1037C0000028EED0204602F06AFB0128E9D93146F4
:1037D000204602F0ACFC0028E4DBE2E700BEFFFF7D
:1037E000F0B50C4687B0002105461646FFF776FF78
:1037F000002839D103A802F098FA21466A6803A884
:1038000002F071FB044618B103A802F094FA0CE030
:1038100005F10804214603A802F089FC002807DB13
:1038200003A802F088FA6FF00304A4F5854418E0B9
:1038300005F1680303A96F680846009305F11402B7
:10384000234602F0CFFF04460028DDD13A46314638
:1038500003A802F069FB044603A802F06CFA002CEE
:10386000E3D1204607B0F0BD004CFAE780BFFFFF70
:10387000234A2DE9F041B1F1000818BF9646214ACC
:10388000214918BF944602F1794208BF8E4602F5DD
:1038900074021E4902F5016208BF8C461C4918BF1C
:1038A00011461C4A1C4F18BF17461C4A1C4E18BF15
:1038B000164602F1D14202F5C01202F51E62194D00
:1038C00018BF1546184A0346184C194818BF144625
:1038D000A2F11162A2F50C22A2F28E2218BF0246BA
:1038E0000020C3E902ECC3E90000C3E90417C3E9FF
:1038F0000665C3E90842C3F86880BDE8F08100BFEF
:10390000D89E05C107D57C3667E6096A85AE67BBD8
:1039100072F36E3C39590EF73AF54FA5310BC0FFE3
:103920007F520E518C68059BA78FF964ABD9831F1A
:10393000A44FFABE2DE9F04FD1B00DF58E7B5A465B
:10394000031D019300F124030393019B53F8040F1B
:1039500042F8040F03989842F8D1DDE948074FF088
:1039600000094F9B4CAD0293DDE94AE30493424BBF
:1039700006AA059395E82011B9F10F0F63D84C788A
:103980000B78240444EA0364CB7823438C7843EA1D
:1039900004234FEAF52A8CEA0804059E8AEAB51A40
:1039A0002C408AEA756A84EA0C04544456F804AB45
:1039B000936054442344029C4FEA703A234440EA03
:1039C000070405968AEAB00A04EA0E0400EA07062C
:1039D0008AEAB05A3443544409F10109DDF810A0D1
:1039E000B9F1400F9A4402F10402234401F10401A9
:1039F000CDF808C0CDF810E01ED1CDE90634CDE9F0
:103A00004E8CCDE94CA5CDE94A7ECDE94830019AEE
:103A100052F8043F01925BF8042F1344019A13609B
:103A2000039B9342F3D106A84FF4947100F0BAFEC1
:103A3000002051B0BDE8F08FBE46C4460746A846F8
:103A40001846554698E7136852F8384C4FEAF34A3F
:103A50008AEA734A8AEA932A52F8143C52F8346C80
:103A6000234452F8344C53444FEAB44484EAF614E5
:103A700084EAD60423448CE71C76000008B54FF492
:103A80007F03D3F83021D3F83431BFF34F8F092AA5
:103A900001BF4FF050230022C3F81421C3F81821AE
:103AA00003F055FA28B101224D4BC3F8382AC3F868
:103AB00078254FF47F03D3F83021D3F83431BFF3A6
:103AC0004F8F092A05D1012B1EBF0122444BC3F899
:103AD000782503F03CFA18B10E22424BC3F8E42ECD
:103AE0004FF47F03D3F83021D3F83431BFF34F8F35
:103AF000092A06D100223A4BC3F80C270122C3F849
:103B000010270022D30003F57F03D3F80013BFF37F
:103B10004F8F013108D0D3F800130132D3F80433AA
:103B2000B2F5807F0B60EDD12F4BDA69BFF34F8F79
:103B3000D10745D5BFF34F8F2C4BD3F80024012A72
:103B4000FBD1C3F80425D3F80024012AFBD1264B6E
:103B5000DA69BFF34F8FD2070AD5DA6922F0010282
:103B6000DA61BFF34F8F214AD2F80034012BFBD129
:103B70001D4A136ABFF34F8F01330CD1136A23F030
:103B8000FF0343F020031362BFF34F8F174AD2F8AD
:103B90000034012BFBD10022144BC3F80425D3F8C9
:103BA0000024012AFBD1BFF34F8F1149114BCA6882
:103BB00002F4E0621343CB60BFF34F8F00BFFDE719
:103BC0001B6ABFF34F8F0133B4D0094AD2F88C304F
:103BD00043F44063C2F88C30074B084A1A6008BDB2
:103BE0000040005000A003500080FF0000900350F0
:103BF00000ED00E00400FA053C0000200090D00336
:103C000070B501250268B2FA82F3C3F11F03DBB27B
:103C100005FA03F422EA0404D0E8EF6F964204D1D7
:103C2000C0E8EC4FBCF1000FF6D1EBD101480B70AE
:103C300070BD00BF0000AD0B10B50368CB40DB07C3
:103C400010D401238B40026843EA0201D0E8EF4F11
:103C5000944204D1C0E8EC1FBCF1000FF6D1F2D1C0
:103C6000014810BD0148FCE70000AD0B0400AD0B9E
:103C7000044B1A7922B9012218601A710248704760
:103C800002487047BC0E00200000AD0B0C00AD0BCD
:103C90004FF0502310B5D3F8002152B10020C3F8E3
:103CA0000001D3F800210122C3F80823114B1B683F
:103CB00098474FF05023D3F804218AB10022C3F86B
:103CC0000421D3F80421D3F81824D3F8181402F0EF
:103CD0000302012A4FF0020103D1C3F818159A60BC
:103CE00010BDC3F80813034B0120BDE810401B684A
:103CF000184700BFBC0E002001460148FFF780BFF7
:103D000040000020064A00F01F0002EB8002D2F8BB
:103D1000003223F4403343EA0143C2F800327047D3
:103D200000258450034B083033F81000C0F34010D6
:103D3000704700BF4400002070B50D4C00F108032F
:103D400034F813300546DA050E4607D5C3F343238E
:103D500004EBC302526854F833309847A3682BB180
:103D600031462846E268BDE87040184770BD00BF84
:103D70004400002010B4124A083032F81030D9053F
:103D80001BD5C3F3432123F4F85322F8103000204D
:103D900002F10E0434F8023F13F4807F03D0C3F322
:103DA0004323994209D001302028F3D1002342F85F
:103DB0003130044810BCFFF73FBF10BC704700BF54
:103DC000440000209800002038B50246FFF7AAFF03
:103DD0000B4C02F1080560B1002134F815305B0B83
:103DE0009B0003F1A04303F55043C3F81015C3F83B
:103DF00010151046FFF7BEFF002324F8153038BD1C
:103E0000440000202DE9F34104461D4609B34E4FFE
:103E100000F1080837F81860B30706D5FFF782FFEE
:103E200018B14A4802B0BDE8F081494804F01F03C8
:103E300000EB8300D0F80032097823F00F0326F05E
:103E4000020643EA810346F00106C0F8003227F873
:103E500018609AB13C4E04F1080736F81710137831
:103E600011F0020F50680CD00028DAD136F8172074
:103E700022F01C0242EA830326F81730D5BB3548EE
:103E8000D0E721F02001C904C90C26F8171000283A
:103E9000ECD0032BC5D8526892F800C0624692005D
:103EA00002F1A04202F5504223B9C2F81035C2F81F
:103EB0001035DBE7D2F8100541EA4C3120F0030061
:103EC000C2F81005D2F8100541F0200120F4473067
:103ED00020F44070C2F810052002D2F810E500F47A
:103EE000F85040EA034040EA0E00C2F8100526F8F8
:103EF0001710BBE72046D5E90067FFF73BFF002E10
:103F0000BDD0114DD5E90023964201D19F4218D072
:103F100011480DF10701FFF773FE0E4B984281D156
:103F20009DF8072005EBC20308345F6035F81430B4
:103F300045F8326043EA422343F4807325F8143095
:103F40009DE70022EEE700BF440000200400AD0B17
:103F5000002584500000AD0B98000020F8B5044601
:103F600079B33A4E00F1080736F81750AB0704D47E
:103F7000FFF7D8FE08B13648F8BD15F01C0F4B7896
:103F800022D104F01F00DFF8CCC000F1800E5CF8F5
:103F90002EC091F802E05B002CF4E16C097843EA52
:103FA0008E032CF0070C43EA0C0343EA0123294952
:103FB00043F00103803045F0030541F8203026F836
:103FC000175022B92448D7E7012BDAD1D3E71F4E87
:103FD00004F1080736F817008307CCD592F800C023
:103FE0000023614620F02000890001F1A041C004B7
:103FF00001F55041C00CC1F8103526F81700C1F882
:1040000010355578002DDDD0D1F81035927823F495
:10401000981323F4F853C1F81035D1F810E52302B2
:1040200003F4F8532D0443EA0E0305F4403512055A
:104030002B4302F4801240EA4C30134340F020003E
:10404000C1F8103526F81700BCE700BF4400002077
:104050000400AD0B002584500000AD0B014BC3E9FB
:10406000020170474400002008B50246FFF75AFEDF
:1040700038B1054B083233F8123004485B0B0B7033
:1040800008BD0348FCE700BF440000200000AD0B62
:104090000400AD0B38B50F4C94F85850BDB9402210
:1040A000294604F1100001F0FBF80D20FDF7ECFDAE
:1040B000094B0A48C3F87C51D3F87C214FF00042E9
:1040C000C3F80423012384F85830636538BD0448DD
:1040D000FCE700BF4400002000D000500000AD0B02
:1040E0000500AD0B034B93F85800003818BF0120B2
:1040F000704700BF4400002001460148FFF79CBD07
:104100009400002001460148FFF77ABD940000208A
:10411000024610B5FFF706FE1C4B02F1080433F807
:104120001430E0B113F0020419D15B0B9A0002F1D4
:10413000A04000F5514002F1A042046002F5504257
:104140000068D2F8100540F00100C2F8100529B14E
:10415000012202FA03F30E4AC2F8043310BDC3F37E
:104160008203042B0ED0052B0ED00A4B196902F0E6
:104170001F03D94001F0010102311046BDE8104093
:10418000FFF7C0BD0321F8E70221F6E74400002055
:1041900000D000500025845008B50246FFF7C2FD4C
:1041A000C0B10F4B02F1080133F81130990711D457
:1041B00001225B0B9A400B499B0003F1A043C1F81D
:1041C000082303F55043D3F8102522F00302C3F867
:1041D000102508BD0021BDE808401046FFF792BD3C
:1041E0004400002000D0005010B50C4B00F1080234
:1041F00033F812300446DB070DD5FFF7CDFF20461C
:10420000FFF7E2FD0222064B04F01F04803405484C
:1042100043F8242010BD0448FCE700BF4400002000
:10422000002584500000AD0B0400AD0B2DE9F04FCC
:10423000002501222C464D4B4D484E4985B01E6845
:1042400036B1D0F8046316421EBF1C601E681543C9
:1042500004338B424FEA4202F1D1454FD7F87C310B
:1042600093B1454E336A039333624FF0010A0DF167
:104270000C09039870B9C7F87C01D7F87C31336A10
:1042800003933362002BF0D10124002D56D105B0E9
:10429000BDE8F08F90FAA0FBBBFA8BFB374A0BF11D
:1042A00008034FEADB0C32F813100BF0070419F87F
:1042B0000C300AFA04F423EA040309F80C3006EB84
:1042C0008B03D3F80042C1F38202C9069046C4F3BF
:1042D000014418D5114658460193FFF72DFD019B67
:1042E000E4B2D3F80032C3F301439C4207D100216A
:1042F0005846FFF707FD21465846FFF703FD0AFA27
:104300000BF03062B5E7022C0CD103215846FFF7C1
:10431000F9FC08F00503012BF1D141465846FFF79F
:104320000BFDECE7022158460192FFF7EBFC019AE6
:10433000032AF2D0032CE2D18A42EDE795FAA5F3E5
:10434000B3FA83F304FA03F29B0003F1A04303F5ED
:104350005043D3F81005D3F81015C0F30420C1F36F
:10436000014125EA0205FFF7E7FC8EE700D1005086
:1043700000D0005020D1005000258450440000207F
:104380000022034BC3F88425C3F80425704700BFFF
:1043900000900350044AD2F80834DB07FBD50160D3
:1043A000BFF35F8F704700BF0090035008B5C0F3A4
:1043B0000B0383B90222094BC3F88425C3F80425F3
:1043C0004FF0FF320260D3F80024D207FBD5FFF78D
:1043D000D7FF034808BD0348FCE700BF0090035027
:1043E0000000AD0B0A00AD0B012208B5054BC3F868
:1043F0008425C3F80425FFF7CDFFBDE80840FFF78B
:10440000BFBF00BF0090035073B504460D464FF088
:104410002003EFF3118683F31288BFF36F8F00221E
:10442000042896BF114B124B53F8203000924521BF
:104430000246104800F082FE3DB1EB69C3F3080369
:104440001BB145210C4800F079FE00220B4B4521A1
:104450000B4800F073FE29462046FEF7A5FE86F3C2
:104460001188BFF36F8F02B070BD00BF1C770000D2
:10447000108400001E8400004B8400007184000042
:10448000798400000F4B70B553F82040013053F889
:104490002060A64200D870BDD4E900352846984770
:1044A0006DB138B10028B8BF4042FF28A8BFFF2037
:1044B000EB681870EA68537843F0010353700834CE
:1044C000E7E700BF30770000012208B5084B032062
:1044D0001A70FFF7D7FF00F00FF90420FFF7D2FFA3
:1044E000FBF798FF034A137B23F00103137308BD06
:1044F000E22700203001002008B50348034A0021CC
:10450000121A02F0F6FD08BD10010020E427002079
:1045100008B50020FFF7B6FF164B03F5006282F3E3
:10452000088883F30A880025E023134C84F822309E
:10453000E57725766576A57684F82050636A43F49E
:10454000E023636284F82350FDF714FEFDF74EFB71
:104550004FF0FF33A362E36202F0BFFD0120FFF7DB
:1045600091FF0220FFF78EFF2B462A46294603487B
:10457000FDF7ECFBE827002000ED00E0C944000057
:1045800008B50648064A0749121A02F0B4FDBDE80C
:104590000840054A0549064802F0ADBD000000206C
:1045A00010010020148500000000000014850000A8
:1045B00000000020034B1B680BB9FEF749BD00202B
:1045C000704700BFC40E002010B50E4B1C689C4203
:1045D00004D1FFF7EFFF6FF0004010BDFFF7EAFFD7
:1045E000002CF8D0D4E904321B1A62EBE072B3F16C
:1045F000004F72F10001EEDA002AACBF184600202D
:10460000EBE700BFA000002030B570B10B4B5B683A
:1046100098420AD0036843B1D3E90421D0E90445A4
:10462000121941EB0501C3E90421D0E900321360FE
:104630005A600023C0E9003330BD00BFA000002055
:104640002DE9F84303464FF02002EFF3118482F383
:104650001288BFF36F8F254FDFF89490D9F80000D0
:10466000DFF890C048453B604FEAE375DCE9001E87
:104670000CD058B1D0E90486434575EB060217DA31
:10468000B8EB030266EB0506C0E9042659184EEBA9
:104690000505CCE9001500253D60FFF795FF29468B
:1046A000FEF7A4FC84F31188BFF36F8FBDE8F88395
:1046B00018EB01014EEBE8730022CCE90013002354
:1046C000C0E90423FFF7A0FF84F31188BFF36F8FC5
:1046D000836898474FF02003EFF3118483F3128827
:1046E000BFF36F8F3B68A3EB0803B7E7C40E00204E
:1046F000A0000020B0010020014800F038BC00BF3D
:10470000E384000010B50A4C23681BB1012300208C
:10471000236010BD00F050F80028F7D001380628BB
:1047200003D8044B53F8200010BD034810BD00BF50
:10473000C80E002048770000FE8FFFFFBFF34F8FA9
:104740000549064BCA6802F4E0621343CB60BFF32D
:104750004F8F00BFFDE700BF00ED00E00400FA0549
:1047600030B44FF0FE320025074B084C0849496829
:10477000C3F80024C3F80424C3F80824C3F80C24A5
:10478000C4F8005530BC0847001084500000845025
:10479000A8000020024BD0E90012C3E900127047C4
:1047A000A800002038B131B1002201440346013095
:1047B00088421A70FAD1704738B500F02FF820B14E
:1047C000032400F063F8204638BD00F031F898B9B2
:1047D00000F0ACF898B90F4DD5F828391B0EF02B26
:1047E00008D1D5F8242A0C4B9A420AD0072400F0AD
:1047F00017F8E6E70624FAE70424204638BD00242B
:10480000F5E7012000F092F804460028F7D1C5F83A
:104810000C0AD8E7001084500000E0200020704708
:1048200000207047014BC3F8040A70470010845001
:1048300010B5114800F048F800B110BD0F4800F065
:1048400043F80028F9D10E4C204600F03DF800282E
:10485000F3D10C4B0C481C6000F036F801460028E0
:10486000EBD100F02DF8044608B1204610BD00F051
:104870003FF82046FAE700BFBC000020B00000204F
:10488000B8000020C0000020B400002008B508488F
:1048900000F024F8074800F021F8074800F01EF85F
:1048A000064800F01BF8BDE8084000F00BB800BF58
:1048B000BC000020B0000020B8000020B4000020A0
:1048C00000207047704700BF08B5034B02681B68A3
:1048D00010689847002008BDCC00002008B5034BA5
:1048E00002685B6810689847002008BDCC00002073
:1048F00070B5094C094D2069AB68984718B1084B51
:1049000008485B6898470021074AEB6811602069F6
:10491000BDE87040184700BFDC000020CC0000203C
:10492000A800002064770000CC0E0020F8B51A4DD6
:104930001A4E0446B26828699047E8B9184F3B6898
:104940004CB1A3B1012B19D0013B3B602869F3683E
:1049500098470020F8BD43B90121124AC2F800155A
:104960001149D1F81029002AFBD101333B60F368CB
:10497000286998470020F8BD0C48F8BD0A4AD2F8CB
:104980001039002BFBD1074A6FF07E40C2F800358A
:10499000FFF748FF3B68D7E7DC000020CC00002091
:1049A000CC0E00200000845000108450E98FFFFFDF
:1049B00010B5044650B1636813F0685F05D0064A2D
:1049C000934202D000236260236010BD034B044871
:1049D0005B689847EFE700BF2C5F5CA9A800002048
:1049E00084770000C8B143680D4A934213D013F096
:1049F000685F0ED0012350E8002F194640E8001CE4
:104A00009CF0000FF7D1012AF5D0BFF35F8F002093
:104A1000704704487047044870476FF4E04070479F
:104A20002C5F5CA9E98FFFFFEA8FFFFF034680B18F
:104A3000426809498A420AD012F0685F05D0BFF384
:104A40005F8F002210461A60704704487047044880
:104A500070476FF4E04070472C5F5CA9E98FFFFF5F
:104A6000EA8FFFFF10B5044620B10023034A2360FC
:104A7000626010BD0248FFF773FEF6E73A00003AA5
:104A8000AC770000704729B101290CBF09206FF0F5
:104A90001500704703207047002070472DE9F74349
:104AA0000E4617469946044628B94FF0FF3840464F
:104AB00003B0BDE8F0830029F7D0002AF5D0CB6819
:104AC0000D8938461D44042329460DEB030200F0EE
:104AD00043FB80460028E8D146F60812BDF80410D2
:104AE0007389914225D1BDF806109942DDD1042386
:104AF00038460DEB0302294400F02EFB0028D4D1E8
:104B000046F60713BDF804209A42CED1C4E90067E7
:104B10009DF82830A4F80890A3727389BDF8062088
:104B20002B44E360738913442B440435636125618E
:104B3000BDE7002BE4D0B8E72DE9F3410E46174658
:104B40001D46044620B94FF0FF3002B0BDE8F081A9
:104B50000368002BF7D04368002BF4D04FF6FF78A2
:104B6000D4E904239A4216D223685B8923B1E3680F
:104B7000934204BF043323610423216960680DEB71
:104B8000030200F0E9FA0028DDD1A37A2BB1D4E9C1
:104B900003329A4201D30120D7E72389BDF80610DA
:104BA000434501F1040203D0BDF804C09C450BD17C
:104BB00015B1BDF804302B8023690433336039808C
:104BC000236913442361C0E7236913442361C7E7C2
:104BD00000F04BBB4FF4C0735843303070470B7834
:104BE000032B06D0092B14BF4FF0FF304FF4C070D9
:104BF00070474FF4C070704710B5044600F0EAFAF1
:104C00004FF4C072A368303B02FB103010BD8168C6
:104C10000122183921F00701083900F0A0BD13B5B1
:104C20000446019100F02CFD0423A0F108010DEBD6
:104C30000302204600F067FD02B010BD70B51346B8
:104C40000E461546002102460446FCF7E9F850B925
:104C50002B460121204604F12C02FCF7E1F810B1AB
:104C6000002E08BF002070BD73B5044600200D461D
:104C70001646FFF708FF6946C0B2FCF759FF30BB84
:104C80002C2303FB0544E368258900981D44042375
:104C900029460DEB030200F05FFAC0B946F608138F
:104CA000BDF8042064899A42009815D1BDF80630F9
:104CB0009C420CD1042361190DEB030200F04CFA65
:104CC00028B946F60713BDF804209A4207D0009889
:104CD00000F041FA02B070BD002CF2D0F7E7BDF849
:104CE0000610214429443160F1E737B58025044698
:104CF000426A01A903200195FCF742FF58B9019BC4
:104D00000920226DA36201A90195FCF739FF054630
:104D100028B1092500E00125284603B030BD019BDC
:104D2000206A636500F056FAE065F5E70123036049
:104D300003F1012343600023C0E902337047437944
:104D4000012B07D10368012B04D10079431E58427F
:104D500058417047002070477FB506460D46032036
:104D600001A9FCF7E5FE38BB0198FFF745FFF16D9F
:104D70000446284600F0E6F80444019800F02AFAB8
:104D80000646019800F02DFA082201460DEB0200BC
:104D900000F086FA2B7921468DF8083001983346C9
:104DA00002AA00F0EEF9041E019818BF012400F0D9
:104DB000D2F9204604B070BD0124FAE700F0F6B93C
:104DC0002DE9F8430E46002107460846FFF75BFE33
:104DD000044601210020FFF756FE33789C4221D083
:104DE000984221D101252C2303FB0575F86DAC6A8F
:104DF000FFF7F0FE4FF000080746013C6B6A3046B3
:104E000003EBC40253F83410D2F804901B684A46EE
:104E1000C91AC844FFF7D2FFB84504F1FF34EDD3F7
:104E2000BDE8F8830025DEE70120F9E737B5154630
:104E30000C460920694600F0A9FCE979012903D054
:104E40000022204600F0B6FC9DF80330012B02D171
:104E5000204600F08EFCA9682046FFF7E0FE2046C1
:104E6000FEF7ACF9002003B030BD73B50D46064621
:104E7000FCF7BEF80446E86058B302282ED10320A0
:104E800001A9FCF755FE58BB2A4631460198FCF7AC
:104E900015F80446D0B9019800F0F2FB0123014651
:104EA0000DF10302019800F057F90446A0B9012260
:104EB00001980DF1030100F0F7FB10B101238DF80B
:104EC00003309DF8033003F00F03EB71019800F0FD
:104ED00042F9204602B070BD0124F7E70724F8E745
:104EE0000124F6E713B5032001A9FCF721FE48B918
:104EF0000198FFF78CFE0446019800F02CF920463B
:104F000002B010BD0124FAE71FB5032001A9FCF788
:104F10000FFEA8B9019802A9FEF770F9044668B916
:104F20009DF80B30032B03D1019800F022FC0446BE
:104F3000019800F010F9204604B010BD0124F7E7F5
:104F40000124F8E710B543790279012B06BF00234D
:104F50000C46CB0102F1FF3201FB0233026818BF9D
:104F60004C00013A04FB023010BD002070470FB422
:104F700007B504A951F8040B0191FCF765FA03B0D9
:104F80005DF804EB04B07047038B13F0070305D101
:104F90000368002B0CBF002003207047022B05D1B3
:104FA000408BB0FA80F0400980007047012B05D19A
:104FB0000368002B0CBF00200520704700207047BD
:104FC00010B50C4600B111B96FF0150010BD081DE9
:104FD00000F095F80028F9D1A368032BF6D9F3E780
:104FE0002DE9F0410D4607461946281D90461E46FC
:104FF00000F096F8044638B1334642462946384612
:10500000A446BDE8F0416047BDE8F08110B44FF020
:105010002004EFF3118284F31288BFF36F8F416194
:1050200010BC0121FCF71EBA38B50C46054658B134
:1050300051B10B6843B14B6833B11C22002100F021
:105040002FF900202C6138BD6FF01500FBE770B51B
:1050500005460E46FFF7B4FF041E15DB4FF0200394
:10506000EFF3118283F31288BFF36F8F4FF6FF7156
:105070006B8B2C8B8B4204F0070407D182F31188D1
:10508000BFF36F8F6FF00A04204670BD022C0CD165
:1050900001336B8382F31188BFF36F8F00232246A5
:1050A00031462846FFF79CFFEEE7062C14D8DFE8D0
:1050B00004F004131313041A0400002333606B6814
:1050C0003BB9C5E90066ACB902212846FCF7CAF92C
:1050D000DAE71E606E60F6E782F31188BFF36F8F28
:1050E0006FF00404D0E782F31188BFF36F8F6FF085
:1050F0008504C9E782F31188BFF36F8FC4E70346C5
:1051000058B1426802F00302012A03D0032A04D1F5
:10511000026812B10020986070476FF01500704768
:105120004268034602F00302032A4FF00002816046
:1051300014BF104600685A60704770470FB407B537
:1051400004A951F8040B0191FCF77EF903B05DF856
:1051500004EB04B070477047002930B40446184689
:105160000BDBA5680844A84207D8E06864682144BE
:1051700084682468A44630BC60476FF0150030BCDA
:105180007047002930B4044618460BDBA568084474
:10519000A84207D8E0686468214484686468A4462B
:1051A00030BC60476FF0150030BC704700290346E3
:1051B00010B410460ADB9C680844A04206D8D868A0
:1051C0005B681944836810BC9B6818476FF0150032
:1051D00010BC704708B5C0688368DB6898470068F2
:1051E00008BD08B5C0688368DB689847007908BDCA
:1051F00070B54C680368A34201D2012070BD8A6873
:105200002244934201D30020F8E74E69D1E90325F7
:10521000B54203D36FF00B038B61F4E71B1B42F81D
:1052200035304368086902EBC00253600B690133F3
:105230000B61E2E7002008B5FCF746FC7047014629
:105240000068FCF7F3BC00210120FCF7EFBC08B5B7
:10525000FCF74CFDBDE80840FCF7AABD0346002062
:105260001A5C02B970470130FAE710B55AB101393A
:10527000841810F8012B11F8013FA04201D09A4286
:10528000F7D0D01A10BD1046FCE710B5431E0A44F3
:10529000914200D110BD11F8014B03F8014FF7E71F
:1052A0000346C9B20244934200D1704703F8011B80
:1052B000F9E74FF0FF3070470C220369C9B201FBD8
:1052C0000233186C00F0070070474FF02003EFF333
:1052D000118283F31288BFF36F8F036803F0C0035A
:1052E00043F00203036082F31188BFF36F8F7047AE
:1052F00070B5C9B203694FF02004EFF3118584F350
:105300001288BFF36F8F0C2606FB0134246C14F057
:10531000C00408D0A24206D085F31188BFF36F8F76
:105320004FF0FF3070BD012271430B441A6485F3C6
:105330001188BFF36F8F43680B445B689847002068
:10534000F0E78022FFF7D4BFF8B5069F0469C9B221
:105350004FF02005EFF3118685F31288BFF36F8FAE
:105360000C2569430C44256C05F0070CBCF1010FBA
:105370000BD1276486F31188BFF36F8FC4E90E2326
:1053800043685B5898470020F8BD05F0C005AF4260
:1053900086F31188BFF36F8F0CBF6FF077004FF06B
:1053A000FF30F1E713B580240094FFF7CDFF02B082
:1053B00010BD6FF08500704710B41C240069CBB29B
:1053C00003FB0400002110BC1047002001F03ABE8E
:1053D000002001F077BE436800205B681B690B600A
:1053E0007047436802EA01005B6821EA02019860A5
:1053F0000020D9607047436800205B68996070475F
:10540000436800205B68D960704743685A685368F6
:1054100021EA03000B4090600020D360704710B574
:1054200003695868F8B1884219D19C680868A1429C
:10543000586000D19860002008602AB15A680A605C
:105440009A68596002B99960002010E0814206D143
:105450000868206098688142EDD19C60EBE70446C3
:1054600000680028F2D1002AE8D16FF0150010BDC5
:1054700038B505460C4601F027FE002D07DBA84293
:1054800005D9401B84428CBF0020012038BD00207C
:10549000FCE7F7B51C460023164682682360A3602C
:1054A0000D461369694601AA9847019B5A1E01924D
:1054B0001BB96FF0150003B0F0BD0098A2684768F3
:1054C0002168676085B9B31AD0F800C0634528BF6A
:1054D000634603FB07111A442160A26002689A42E6
:1054E00006D808300090E0E76B1AB3FBF7F3EBE760
:1054F0000020E0E713460022FFF7CBBF2DE9F0477D
:105500000024836886B0884691461B6902AA01A9D7
:105510009847A2462546029BAB4202D806B0BDE89A
:10552000F0870026019F07EBC5077B6804933A6864
:105530000AEB0603B24202D89A460135EBE7494628
:105540000394059303A8C0470028E7D0049B0136C5
:105550001C44ECE70B460269D2E9010183E8030031
:105560000020704743681B68D3F88004C3F88004A8
:105570007047436802691B68D3F8100150B10020DE
:10558000526912780A70C3F81001D3F81021012271
:105590001A6070474FF0FF30704702680346D2F838
:1055A000580140B95B689B0706D4D2F82001003847
:1055B00018BF012070470120704742681368D3F874
:1055C0000413C90518D5D3F82011A9B14FF0200054
:1055D000EFF3118180F31288BFF36F8FD3F82001AE
:1055E00030B10020C3F82001D3F820010120D86099
:1055F00081F31188BFF36F8F5268D20615D54FF033
:105600002001EFF3118281F31288BFF36F8FD3F87B
:10561000581111B10021C3F800154FF48001C3F8EF
:10562000081382F31188BFF36F8F7047002200F1D7
:1056300050039B009BB203F1502303F580331A60A3
:105640001B68704730B543681360057A446804EB03
:10565000C504A34202D36FF0010030BD5C798C42D7
:1056600001D00833F0E70020F7E7FFF74BB808B5A3
:10567000FCF7B6FAFFF7E2FDBDE80840FFF742B8D5
:105680008068183820F0070010387047042809D0C7
:10569000052803D1481E18BF01207047431A5842FD
:1056A000584170470120704738B515460C4661B126
:1056B0005AB1FFF796FD2146254411F8013B83427C
:1056C00003D1A942F9D1012038BD0020FCE738B54B
:1056D0000C460123114622460546FFF73DFD0028F2
:1056E0000FDB012221462846FFF7DEFF38B9237879
:1056F000012B14BF022301230020237038BD032394
:10570000FAE70120FAE72DE9F7431D4606460F4662
:105710009046FFF75FFD6C1E044440420440082C95
:105720001AD83046FFF75DFD81462A464146684655
:10573000FFF7ABFD4946621B0DEB0500FFF7B0FD1F
:1057400023466A4639463046FFF71BFD003818BF2E
:10575000012003B0BDE8F0834FF0FF30F9E707B553
:1057600001238DF8042001AAFFF7CDFF03B05DF8F7
:1057700004FB81680122183921F00701FFF7EFBF10
:105780008268183A22F00702FFF7A1BF13B50C4652
:10579000C0B201A9FCF7CCF950B921460198FDF738
:1057A0002DFD04460198FFF7D6FC204602B010BD3F
:1057B0000124FAE713B541EA021104468DF80710F7
:1057C000FFF75EFF012301460DF107022046FFF7B8
:1057D0009AFF02B010BD0020704770B50368CD1A63
:1057E000002D02DC6FF05F0070BD93F900601C7843
:1057F000002E0ADB5C1C04601B7813600368C91A66
:1058000013688B42EED80020EEE704F07F04013CE1
:10581000032C2BD8DFE804F0020A1421012DE1D07B
:105820005B781360036802330360E7E7022DD9DD7C
:10583000B3F801305BBA9BB2136003680333F3E73C
:10584000032DCFDD9C785D782402DB7844EA0544A3
:105850002343136003680433E6E7042DC2DDD3F865
:1058600001301BBA136003680533DDE76FF0630096
:10587000BAE770B404680E1B002E07DD26789E423E
:1058800008D10134046070BCFFF7A7BF6FF05F0060
:1058900070BC70476FF06100FAE773B502231546DC
:1058A00001AA0446FFF7E5FF40B9019E28463246AB
:1058B000216800F018FB23683344236002B070BDF8
:1058C000F0B5844617460E4614460025BCF10F0F6E
:1058D00006F1400604F1400477D86FF00F02040986
:1058E00002FB040007284FEA841C01EB841607EB37
:1058F00084145DD951F80C100838A3FB0112691803
:1059000057F80C5042F10002491947F80C10716821
:1059100042F10002A3FB01515219656841F10001F7
:1059200052196260B26841F10001A3FB02524919A9
:10593000A56842F100024919A160F16842F1000234
:10594000A3FB01515219E56841F100015219E260CF
:10595000326941F10001A3FB02524919256942F164
:10596000000249192161716942F10002A3FB015152
:105970005219656941F1000152196261B26941F140
:105980000001A3FB02524919A56942F1000249191D
:10599000A161F16942F10002A3FB01155218E1690E
:1059A00045F100055218E26145F10005203420362A
:1059B00027464FEA800C06EB8000B04240F006819B
:1059C0006444002D40F01081F0BD56F8402CACF13D
:1059D000100CA3FB02E215EB0E0E54F8405C42F1F2
:1059E000000215EB0E0544F8405C56F83C5C42F1B1
:1059F0000002A3FB05E512EB0E0E54F83C2C45F11A
:105A0000000512EB0E0244F83C2C56F8382C45F1F8
:105A10000005A3FB02E215EB0E0E54F8385C42F1D0
:105A2000000215EB0E0544F8385C56F8345C42F180
:105A30000002A3FB05E512EB0E0E54F8342C45F1E1
:105A4000000512EB0E0244F8342C56F8302C45F1C8
:105A50000005A3FB02E215EB0E0E54F8305C42F198
:105A6000000215EB0E0544F8305C56F82C5C42F150
:105A70000002A3FB05E512EB0E0E54F82C2C45F1A9
:105A8000000512EB0E0244F82C2C56F8282C45F198
:105A90000005A3FB02E215EB0E0E54F8285C42F160
:105AA000000215EB0E0544F8285C56F8245C42F120
:105AB0000002A3FB05E512EB0E0E54F8242C45F171
:105AC000000512EB0E0244F8242C56F8202C45F168
:105AD0000005A3FB02E215EB0E0E54F8205C42F128
